{
  "_format": "hh-sol-artifact-1",
  "contractName": "Vault",
  "sourceName": "contracts/Vault.sol",
  "abi": [
    {
      "anonymous": false,
      "inputs": [
        {
          "indexed": true,
          "internalType": "address",
          "name": "previousOwner",
          "type": "address"
        },
        {
          "indexed": true,
          "internalType": "address",
          "name": "newOwner",
          "type": "address"
        }
      ],
      "name": "OwnershipTransferred",
      "type": "event"
    },
    {
      "inputs": [
        {
          "internalType": "address",
          "name": "",
          "type": "address"
        }
      ],
      "name": "balances",
      "outputs": [
        {
          "internalType": "uint256",
          "name": "",
          "type": "uint256"
        }
      ],
      "stateMutability": "view",
      "type": "function"
    },
    {
      "inputs": [
        {
          "internalType": "uint256",
          "name": "price",
          "type": "uint256"
        },
        {
          "internalType": "bytes32",
          "name": "hashIdentifier",
          "type": "bytes32"
        }
      ],
      "name": "deposit",
      "outputs": [],
      "stateMutability": "payable",
      "type": "function"
    },
    {
      "inputs": [],
      "name": "getSomeEther",
      "outputs": [],
      "stateMutability": "nonpayable",
      "type": "function"
    },
    {
      "inputs": [],
      "name": "owner",
      "outputs": [
        {
          "internalType": "address",
          "name": "",
          "type": "address"
        }
      ],
      "stateMutability": "view",
      "type": "function"
    },
    {
      "inputs": [
        {
          "internalType": "bytes32",
          "name": "",
          "type": "bytes32"
        }
      ],
      "name": "payments",
      "outputs": [
        {
          "internalType": "uint256",
          "name": "amount",
          "type": "uint256"
        },
        {
          "internalType": "address",
          "name": "sender",
          "type": "address"
        }
      ],
      "stateMutability": "view",
      "type": "function"
    },
    {
      "inputs": [],
      "name": "renounceOwnership",
      "outputs": [],
      "stateMutability": "nonpayable",
      "type": "function"
    },
    {
      "inputs": [
        {
          "internalType": "address",
          "name": "newOwner",
          "type": "address"
        }
      ],
      "name": "transferOwnership",
      "outputs": [],
      "stateMutability": "nonpayable",
      "type": "function"
    },
    {
      "inputs": [],
      "name": "withdraw",
      "outputs": [],
      "stateMutability": "nonpayable",
      "type": "function"
    },
    {
      "stateMutability": "payable",
      "type": "receive"
    }
  ],
  "bytecode": "0x608060405234801561001057600080fd5b50600160005561001f33610024565b610076565b600180546001600160a01b038381166001600160a01b0319831681179093556040519116919082907f8be0079c531659141344cd1fd0a4f28419497f9722a3daafe3b4186f6b6457e090600090a35050565b610820806100856000396000f3fe60806040526004361061007f5760003560e01c8063715018a61161004e578063715018a6146101515780638da5cb5b14610166578063c9630cb01461018e578063f2fde38b146101a157600080fd5b80630716326d1461008b578063165ef242146100ea57806327e235e3146101015780633ccfd60b1461013c57600080fd5b3661008657005b600080fd5b34801561009757600080fd5b506100c86100a6366004610717565b600260205260009081526040902080546001909101546001600160a01b031682565b604080519283526001600160a01b039091166020830152015b60405180910390f35b3480156100f657600080fd5b506100ff6101c1565b005b34801561010d57600080fd5b5061012e61011c366004610730565b60036020526000908152604090205481565b6040519081526020016100e1565b34801561014857600080fd5b506100ff61031f565b34801561015d57600080fd5b506100ff610483565b34801561017257600080fd5b506001546040516001600160a01b0390911681526020016100e1565b6100ff61019c366004610759565b6104e9565b3480156101ad57600080fd5b506100ff6101bc366004610730565b6105b7565b6002600054036102185760405162461bcd60e51b815260206004820152601f60248201527f5265656e7472616e637947756172643a207265656e7472616e742063616c6c0060448201526064015b60405180910390fd5b600260005567016345785d8a0000471015806102765760405162461bcd60e51b815260206004820152600d60248201527f6e6f206574686572206c65667400000000000000000000000000000000000000604482015260640161020f565b604051600090339067016345785d8a0000908381818185875af1925050503d80600081146102c0576040519150601f19603f3d011682016040523d82523d6000602084013e6102c5565b606091505b50509050806103165760405162461bcd60e51b815260206004820152600f60248201527f7769746864726177206661696c65640000000000000000000000000000000000604482015260640161020f565b50506001600055565b6001546001600160a01b031633146103795760405162461bcd60e51b815260206004820181905260248201527f4f776e61626c653a2063616c6c6572206973206e6f7420746865206f776e6572604482015260640161020f565b6002600054036103cb5760405162461bcd60e51b815260206004820152601f60248201527f5265656e7472616e637947756172643a207265656e7472616e742063616c6c00604482015260640161020f565b60026000908155336103e9600a6103e3476008610699565b906106ac565b604051600081818185875af1925050503d8060008114610425576040519150601f19603f3d011682016040523d82523d6000602084013e61042a565b606091505b505090508061047b5760405162461bcd60e51b815260206004820152600f60248201527f7769746864726177206661696c65640000000000000000000000000000000000604482015260640161020f565b506001600055565b6001546001600160a01b031633146104dd5760405162461bcd60e51b815260206004820181905260248201527f4f776e61626c653a2063616c6c6572206973206e6f7420746865206f776e6572604482015260640161020f565b6104e760006106b8565b565b3482146105385760405162461bcd60e51b815260206004820152601c60248201527f707269636520616e64206d73672e76616c7565206d69736d6174636800000000604482015260640161020f565b604080518082018252348082523360208084018281526000878152600283528681209551865590516001909501805473ffffffffffffffffffffffffffffffffffffffff19166001600160a01b039096169590951790945581845260039052928220805491939284926105ac908490610791565b909155505050505050565b6001546001600160a01b031633146106115760405162461bcd60e51b815260206004820181905260248201527f4f776e61626c653a2063616c6c6572206973206e6f7420746865206f776e6572604482015260640161020f565b6001600160a01b03811661068d5760405162461bcd60e51b815260206004820152602660248201527f4f776e61626c653a206e6577206f776e657220697320746865207a65726f206160448201527f6464726573730000000000000000000000000000000000000000000000000000606482015260840161020f565b610696816106b8565b50565b60006106a582846107a9565b9392505050565b60006106a582846107c8565b600180546001600160a01b0383811673ffffffffffffffffffffffffffffffffffffffff19831681179093556040519116919082907f8be0079c531659141344cd1fd0a4f28419497f9722a3daafe3b4186f6b6457e090600090a35050565b60006020828403121561072957600080fd5b5035919050565b60006020828403121561074257600080fd5b81356001600160a01b03811681146106a557600080fd5b6000806040838503121561076c57600080fd5b50508035926020909101359150565b634e487b7160e01b600052601160045260246000fd5b600082198211156107a4576107a461077b565b500190565b60008160001904831182151516156107c3576107c361077b565b500290565b6000826107e557634e487b7160e01b600052601260045260246000fd5b50049056fea26469706673582212202c3f67feef2957c0d42dbd4052dea107ce005389f86b8934d31aacbec10454a364736f6c634300080d0033",
  "linkReferences": {},
  "deployedLinkReferences": {}
}